:100000000C945D000C9485000C9485000C94850084
:100010000C9485000C9485000C9485000C9485004C
:100020000C9485000C9485000C9485000C9485003C
:100030000C9485000C9485000C9485000C9485002C
:100040000C94E7020C9485000C9457030C94310334
:100050000C9485000C9485000C9485000C9485000C
:100060000C9485000C9485000000000024002700FB
:100070002A0000000000250028002B0004040404CE
:100080000404040402020202020203030303030342
:10009000010204081020408001020408102001021F
:1000A00004081020000000080002010000030407FB
:1000B0000000000000000000890311241FBECFEFE4
:1000C000D8E0DEBFCDBF11E0A0E0B1E0EAE5FFE09F
:1000D00002C005900D92A232B107D9F721E0A2E249
:1000E000B1E001C01D92A63DB207E1F710E0CDE5F9
:1000F000D0E004C02197FE010E94F505CC35D10760
:10010000C9F70E94FF030C94AB070C94000090E029
:10011000FC01EC55FF4F3491FC01E057FF4F249157
:10012000FC01E458FF4FE491EE2309F43BC0332374
:1001300039F1333091F038F43130A9F0323001F533
:1001400084B58F7D12C0373091F03830A1F0343053
:10015000B9F4809180008F7D03C0809180008F77FB
:10016000809380000DC084B58F7784BD09C08091D5
:10017000B0008F7703C08091B0008F7D8093B00076
:10018000F0E0EE0FFF1FEE58FF4FA591B4918FB72F
:10019000F894EC91611103C020952E2301C02E2B01
:1001A0002C938FBF0895CF93DF9390E0FC01E0572D
:1001B000FF4F2491FC01E458FF4F8491882361F1A3
:1001C00090E0880F991FFC01E859FF4FC591D49129
:1001D000FC01EE58FF4FA591B491611109C09FB782
:1001E000F8948881209582238883EC912E230BC07C
:1001F000623061F49FB7F8943881822F8095832311
:100200008883EC912E2B2C939FBF06C08FB7F89458
:10021000E8812E2B28838FBFDF91CF9108953FB7C0
:10022000F8948091270190912801A0912901B09123
:100230002A0126B5A89B05C02F3F19F00196A11DE4
:10024000B11D3FBFBA2FA92F982F8827820F911D6C
:10025000A11DB11DBC01CD0142E0660F771F881FB3
:10026000991F4A95D1F708958F929F92AF92BF92AE
:10027000CF92DF92EF92FF926B017C010E940F01FF
:100280004B015C01C114D104E104F104F1F00E94BE
:100290000F01DC01CB0188199909AA09BB09883E25
:1002A0009340A105B10570F321E0C21AD108E1081D
:1002B000F10888EE880E83E0981EA11CB11CC114C1
:1002C000D104E104F10419F7DDCFFF90EF90DF9046
:1002D000CF90BF90AF909F908F900895CF92DF9274
:1002E000EF92FF920F931F93CF93DF936C017A01EC
:1002F0008B01C0E0D0E0CE15DF0589F0D8016D910B
:100300008D01D601ED91FC910190F081E02DC601A7
:100310000995892B11F47E0102C02196ECCFC7010B
:10032000DF91CF911F910F91FF90EF90DF90CF90D1
:100330000895FC01918D828D981761F0828DDF0107
:10034000A80FB11D5D968C91928D9F5F9F73928FC8
:1003500090E008958FEF9FEF0895FC01918D828DBD
:10036000981731F0828DE80FF11D858D90E008958A
:100370008FEF9FEF0895FC01918D228D892F90E0E2
:10038000805C9F4F821B91098F73992708958BE2A0
:1003900091E00E94BB0121E0892B09F420E0822F2B
:1003A0000895FC01848DDF01A80FB11DA35ABF4F32
:1003B0002C91848D90E001968F739927848FA68964
:1003C000B7892C93A089B1898C9180648C93938D8B
:1003D000848D981306C00288F389E02D80818F7D7B
:1003E00080830895EF92FF920F931F93CF93DF9333
:1003F000EC0181E0888F9B8D8C8D981305C0E88976
:10040000F989808185FD24C0F62E0B8D10E00F5FE9
:100410001F4F0F731127E02E8C8DE8120CC00FB602
:1004200007FCFACFE889F989808185FFF5CFCE01F5
:100430000E94D101F1CF8B8DFE01E80FF11DE35A2F
:10044000FF4FF0820B8FEA89FB898081806207C0B1
:10045000EE89FF896083E889F989808180648083DF
:1004600081E090E0DF91CF911F910F91FF90EF908D
:100470000895CF93DF93EC01888D8823C9F0EA8932
:10048000FB89808185FD05C0A889B9898C9186FD8D
:100490000FC00FB607FCF5CF808185FFF2CFA8898A
:1004A000B9898C9185FFEDCFCE010E94D101E7CFB4
:1004B000DF91CF91089580E090E0892B29F00E9490
:1004C000C70181110C9400000895EF92FF920F93E1
:1004D0001F93CF93DF93C82F8091CD018F3FB9F148
:1004E0006C2F61708091D1010E948700C1FB66274B
:1004F00060F98091D0010E948700C2FB662760F9F5
:100500008091CF010E948700C3FB662760F980912C
:10051000CE010E948700C4FB662760F98091CD015F
:100520000E948700C5FB662760F98091CC010E947C
:100530008700C6FB662760F98091CB010E94870087
:100540006C2F661F6627661F8091CA0126C060E077
:100550008091CB010E948700F090CC01E090CA010D
:1005600007E010E0D0E0BE01002E02C0759567954F
:100570000A94E2F7617077278E2D0E94870061E070
:100580008F2D0E94870060E08F2D0E948700015010
:10059000110948F761E08091CB010E94870060E07B
:1005A0008091C8010E94870061E070E080E090E0E7
:1005B0000E94340161E08091C801DF91CF911F91C9
:1005C0000F91FF90EF900C9487000E94A6071F9256
:1005D0000F920FB60F9211242F933F938F939F93F7
:1005E000AF93BF938091230190912401A0912501A5
:1005F000B09126013091220123E0230F2D3720F402
:100600000196A11DB11D05C026E8230F0296A11D6C
:10061000B11D209322018093230190932401A09384
:100620002501B09326018091270190912801A09186
:100630002901B0912A010196A11DB11D80932701C6
:1006400090932801A0932901B0932A01BF91AF9103
:100650009F918F913F912F910F900FBE0F901F9000
:1006600018951F920F920FB60F9211242F933F935C
:100670004F935F936F937F938F939F93AF93BF93AA
:10068000EF93FF938BE291E00E94D101FF91EF91F4
:10069000BF91AF919F918F917F916F915F914F919A
:1006A0003F912F910F900FBE0F901F9018951F92A2
:1006B0000F920FB60F9211242F938F939F93EF9366
:1006C000FF93E0913B01F0913C018081E091410179
:1006D000F091420182FD12C09081809144018F5FB0
:1006E0008F7320914501821751F0E0914401F0E0B1
:1006F000E55DFE4F958F8093440101C08081FF919D
:10070000EF919F918F912F910F900FBE0F901F909F
:100710001895CF93DF93EBE2F1E01382128288EE1B
:1007200093E0A0E0B0E084839583A683B78386E15D
:1007300091E09183808385EC90E09587848784ECB9
:1007400090E09787868780EC90E0918B808B81EC9E
:1007500090E0938B828B82EC90E0958B848B86EC7F
:1007600090E0978B868B118E128E138E148EC8ECB0
:10077000D1E082E0888387E08A8386E08B8385E00E
:100780008C8384E08D8381E18E8380E18F838FE091
:1007900088878EE0898780E094E2A4E7BAE48A87BC
:1007A0009B87AC87BD8761E082E00E94D30061E057
:1007B00088810E9487008FEF898361E08A810E948F
:1007C000D30061E08B810E94D30061E08C810E94A4
:1007D000D30061E08D810E94D30061E08E810E9490
:1007E000D30061E08F810E94D30061E088850E9480
:1007F000D30061E08985DF91CF910C94D300789488
:1008000084B5826084BD84B5816084BD85B5826015
:1008100085BD85B5816085BD80916E0081608093C6
:100820006E0010928100809181008260809381002F
:10083000809181008160809381008091800081603F
:10084000809380008091B10084608093B10080919A
:10085000B00081608093B00080917A0084608093C2
:100860007A0080917A00826080937A0080917A0089
:10087000816080937A0080917A00806880937A000A
:100880001092C10083E48093B00089E08093B100AE
:1008900081E08093B300A091B300B0E0119624EF03
:1008A00031E00E94DA0528EE33E040E050E00E949B
:1008B000B805DA01C9010197A109B1098093B40013
:1008C00061E08BE00E94D3008FE90E9465028FEB0C
:1008D0000E9465028FED0E9465028FEF0E94650203
:1008E00010E9E0EDEE2EE7E0FE2E812F0E9465027A
:1008F000C6E0D1E070E0C72E71E0D72E00EF010F07
:100900006991799180E090E00E94AB0620E030E0B0
:1009100040E052E40E9439079B01AC016091D20192
:100920007091D3018091D4019091D5010E940A0663
:100930000E947C06E62FEC70E00F262F2270E20F5B
:10094000262F2170E20F71FD02C0F0E001C0F0E23D
:1009500070FD02C050E001C050E167FD02C040E000
:1009600001C048E066FD02C030E001C034E065FD32
:1009700002C020E001C022E0DC01CB0164E0B695BA
:10098000A795979587956A95D1F7682F61706F0F36
:10099000B62EB50EB40EB30EB20E8E2F0E946502A7
:1009A0008B2D0E946502F60161916F0170E0C70115
:1009B0000E94A405072E000C880B990B0E9434019D
:1009C000F1E0C231DF0709F09BCF8FE0810F0E9479
:1009D000650268EE73E080E090E00E943401105EF2
:1009E000103F09F082CF80EF0E946502C0E08C2F9B
:1009F000C43008F083E080510E94650264EF71E02A
:100A000080E090E00E943401CF5FC43081F7C0E005
:100A10008C2FC43008F083E08C500E94650264EF94
:100A200071E080E090E00E943401CF5FC43081F734
:100A30008FEF0E94650268EE73E080E090E00E9414
:100A40003401E0913B01F0913C0182E08083E09130
:100A50003701F09138011082E0913901F0913A01AB
:100A600080E1808310924301E0913F01F0914001C9
:100A700086E08083E0913D01F0913E0180818061BC
:100A80008083E0913D01F0913E0180818860808308
:100A9000E0913D01F0913E01808180688083E0918A
:100AA0003D01F0913E0180818F7D80838BE291E05A
:100AB0000E94BB01181619060CF043C08BE291E0AE
:100AC0000E949901C82F682F61708EE00E948700F4
:100AD000C1FB662760F98FE00E948700C2FB662792
:100AE00060F980E10E948700C3FB662760F981E11D
:100AF0000E948700C4FB662760F984E00E9487009B
:100B0000C5FB662760F985E00E948700C6FB662763
:100B100060F986E00E9487006C2F661F6627661FBB
:100B200087E00E94870060E082E00E94870061E029
:100B300070E080E090E00E94340161E082E00E9479
:100B400087000E945B02B2CF97FB072E16F4009439
:100B500007D077FD09D00E94E10507FC05D03EF4DF
:100B6000909581959F4F0895709561957F4F089559
:100B7000A1E21A2EAA1BBB1BFD010DC0AA1FBB1FA1
:100B8000EE1FFF1FA217B307E407F50720F0A21B13
:100B9000B30BE40BF50B661F771F881F991F1A9480
:100BA00069F760957095809590959B01AC01BD01AA
:100BB000CF0108950E94FB05B7FF0895821B930B98
:100BC0000895AA1BBB1B51E107C0AA1FBB1FA61794
:100BD000B70710F0A61BB70B881F991F5A95A9F7E6
:100BE00080959095BC01CD010895EE0FFF1F0590F3
:100BF000F491E02D0994A29FB001B39FC001A39F7F
:100C0000700D811D1124911DB29F700D811D112445
:100C1000911D08950E941E060C94FF060E94F8067E
:100C200058F00E94F10640F029F45F3F29F00C943F
:100C3000E80651110C9433070C94EE060E9410073D
:100C400068F39923B1F3552391F3951B550BBB27FB
:100C5000AA2762177307840738F09F5F5F4F220F40
:100C6000331F441FAA1FA9F335D00E2E3AF0E0E837
:100C700032D091505040E695001CCAF72BD0FE2F81
:100C800029D0660F771F881FBB1F26173707480715
:100C9000AB07B0E809F0BB0B802DBF01FF279358CD
:100CA0005F4F3AF09E3F510578F00C94E8060C94A3
:100CB00033075F3FE4F3983ED4F3869577956795C5
:100CC000B795F7959F5FC9F7880F911D9695879502
:100CD00097F90895E1E0660F771F881FBB1F621721
:100CE00073078407BA0720F0621B730B840BBA0BDF
:100CF000EE1F88F7E09508950E94180788F09F5727
:100D000098F0B92F9927B751B0F0E1F0660F771F2F
:100D1000881F991F1AF0BA95C9F714C0B13091F025
:100D20000E943207B1E008950C943207672F782FA4
:100D30008827B85F39F0B93FCCF3869577956795EA
:100D4000B395D9F73EF490958095709561957F4F56
:100D50008F4F9F4F0895E89409C097FB3EF49095FC
:100D60008095709561957F4F8F4F9F4F9923A9F084
:100D7000F92F96E9BB279395F69587957795679513
:100D8000B795F111F8CFFAF4BB0F11F460FF1BC057
:100D90006F5F7F4F8F4F9F4F16C0882311F096E9EA
:100DA00011C0772321F09EE8872F762F05C0662398
:100DB00071F096E8862F70E060E02AF09A95660F51
:100DC000771F881FDAF7880F9695879597F908950A
:100DD00097F99F6780E870E060E008959FEF80ECEE
:100DE000089500240A941616170618060906089591
:100DF00000240A9412161306140605060895092EF7
:100E00000394000C11F4882352F0BB0F40F4BF2B65
:100E100011F460FF04C06F5F7F4F8F4F9F4F0895A5
:100E200057FD9058440F551F59F05F3F71F047959B
:100E3000880F97FB991F61F09F3F79F08795089580
:100E4000121613061406551FF2CF4695F1DF08C09F
:100E5000161617061806991FF1CF869571056105BC
:100E600008940895E894BB2766277727CB0197F964
:100E700008950E944C070C94FF060E94F10638F07A
:100E80000E94F80620F0952311F00C94E8060C94CB
:100E9000EE0611240C9433070E94100770F3959FFF
:100EA000C1F3950F50E0551F629FF001729FBB2761
:100EB000F00DB11D639FAA27F00DB11DAA1F649FFD
:100EC0006627B00DA11D661F829F2227B00DA11DB0
:100ED000621F739FB00DA11D621F839FA00D611D36
:100EE000221F749F3327A00D611D231F849F600D57
:100EF000211D822F762F6A2F11249F5750409AF080
:100F0000F1F088234AF0EE0FFF1FBB1F661F771F0B
:100F1000881F91505040A9F79E3F510580F00C94D6
:100F2000E8060C9433075F3FE4F3983ED4F38695CC
:100F300077956795B795F795E7959F5FC1F7FE2B76
:100F4000880F911D9695879597F9089581E090E017
:0A0F5000F8940C94AB07F894FFCF5F
:100F5A0004040408080488015D01D2010B02BA02E4
:100F6A004B0200000000F2016E01BB019901AD01C4
:020F7A0039023A
:00000001FF
